:1000000080311828080008007E1480310B1F092851
:100010000A2816282E001A1C0E280F281628101C35
:100020001228132816288D31C22580317E10090030
:1000300080311A28FA01FB012000E701E801E901FB
:10004000EA01EB01C8308400003085001E308D319C
:1000500015258031203084000130850020308D311D
:10006000152580317E102000803136282100AE0118
:10007000AF01C201C301C401C501C601C7010330FC
:10008000BE000030BF000230BC000030BD000130B7
:10009000B0000030B100FF30B200FF30B300FF30DD
:1000A000B400FF30B500FF30B600FF30B7001430A9
:1000B000B8000030B9000230BA000030BB008D310A
:1000C0009A2580318B170B170B30F2000D30F3009F
:1000D0008D310F2580318D31452580318631522675
:1000E000803121006508031976287728712880302F
:1000F0008D311B25803120302000CF009030D00082
:10010000210043082000D200210042082000D10035
:10011000210045082000D400210044082000D3001D
:10012000210047082000D600210046082000D50005
:10013000A0308E315B268031A0302000A00000303E
:10014000A1008D31EF25803101302100BC07003046
:10015000BD3D3F083D06031DAF283E083C06031D7C
:10016000B228B32813298331232380312100C00012
:1001700000308D316325803173082100C100C0300B
:100180008D311B2580312F302000CF009030D000E2
:10019000210040082000E500E6016508D10066085E
:1001A000D200A8308E315B2680318D318725803199
:1001B000200020082104031DDE28DF28D528A830D0
:1001C000A0000030A1008D31EF2580310E302000DD
:1001D000A00001308D31AD25803137302000CF00B7
:1001E0009030D000210041082000E500E6016508BC
:1001F000D1006608D200A8308E315B2680318D3167
:1002000087258031200020082104031D08290929A1
:10021000FF28A830A0000030A1008D31EF258031EB
:100220002100BC01BD013008310403191829192926
:10023000A6290F302000A00000308D31AD2580317F
:100240003B302000A0009030A1008D31EF2580319F
:100250000B302000A00000308D31AD258031210011
:1002600033084306031D362932084206031D392987
:100270003A29562935084506031D40293408440605
:10028000031D43294429562937084706031D4A29D7
:1002900036084606031D4D294E2956293D302000BB
:1002A000A0009030A1008D31EF2580310C3020006E
:1002B000A00000308D31AD25803121003908803A11
:1002C0002000E50080306502031D692921004008F7
:1002D000380203186C296D29762941302000A000CE
:1002E0009030A1008D31EF2580317E2935302000FE
:1002F000A0009030A1008D31EF2580310D3020001D
:10030000A00000308D31AD25803121003B08803ABE
:100310002000E50080306502031D9129210041087D
:100320003A020318942995299E293F302000A00005
:100330009030A1008D31EF258031A6293530200085
:10034000A0009030A1008D31EF25803121004708B9
:10035000803A2000E50080306502031DB2293B3061
:10036000210046020318B529B629BC290130210015
:10037000C6070030C73DDB292100C601C70145087B
:10038000803A2000E50080306502031DCA293B3019
:10039000210044020318CD29CE29D429013021009F
:1003A000C4070030C53DDB292100C401C50101306F
:1003B000C2070030C33DE501712880311828F800DC
:1003C00023000F0C890C0139F40011081F39740443
:1003D000031DEB29EC29E02911141118F029F1294A
:1003E000ED290F0C890C0139F40011081F39740430
:1003F000031DFB29FC29F1294E308F3165278131FE
:1004000023000F0C890C0139F40011081F39740402
:10041000031D0B2A0C2A002A7808FA388F31652729
:10042000813123000F0C890C0139F40011081F39A8
:100430007404031D1C2A1D2A112A7808FE388F31E6
:100440006527813123000F0C890C0139F400110854
:100450001F397404031D2D2A2E2A222A000023008E
:1004600091149118342A352A312A0F0C890C01393C
:10047000F40011081F397404031D3F2A402A352A4D
:100480004F308F316527813123000F0C890C0139E2
:10049000F40011081F397404031D4F2A502A442AFE
:1004A0008E3108268131F60023000F0C890C0139AA
:1004B000F40011081F397404031D5F2A602A542AAE
:1004C00091161116111A652A662A622A911491183A
:1004D0006A2A6B2A672A0F0C890C0139F40011086B
:1004E0001F397404031D752A762A6B2A4E308F310A
:1004F0006527813123000F0C890C0139F4001108A4
:100500001F397404031D852A862A7A2A7808FA3846
:100510008F316527813123000F0C890C0139F400DC
:1005200011081F397404031D962A972A8B2A78080C
:10053000FE388F316527813123000F0C890C01397A
:10054000F40011081F397404031DA72AA82A9C2A45
:100550000000230091149118AE2AAF2AAB2A0F0C89
:10056000890C0139F40011081F397404031DB92ADC
:10057000BA2AAF2A4F308F316527813123000F0C03
:10058000890C0139F40011081F397404031DC92AAC
:10059000CA2ABE2A8E3108268131F70023000F0CAB
:1005A000890C0139F40011081F397404031DD92A7C
:1005B000DA2ACE2A91161116111ADF2AE02ADC2A2D
:1005C00091149118E42AE52AE12A0F0C890C0139CB
:1005D000F40011081F397404031DEF2AF02AE52ADC
:1005E0004E308F316527813123000F0C890C013982
:1005F000F40011081F397404031DFF2A002BF42A8C
:100600007808FA388F316527813123000F0C890C67
:100610000139F40011081F397404031D102B112B2C
:10062000052B11151119152B162B122B7708F40019
:100630000430F436890B192B0F307405F500760859
:10064000F0397504080023000F0C890C0139F400FF
:1006500011081F397404031D2E2B2F2B232B11146B
:100660001118332B342B302B0F0C890C0139F4006B
:1006700011081F397404031D3E2B3F2B342B9A3075
:100680008F316527833123000F0C890C0139F40069
:1006900011081F397404031D4E2B4F2B432B0130BF
:1006A0008F316527833123000F0C890C0139F40049
:1006B00011081F397404031D5E2B5F2B532B9114FB
:1006C0009118632B642B602B0F0C890C0139F400FB
:1006D00011081F397404031D6E2B6F2B642B9B3084
:1006E0008F316527833123000F0C890C0139F40009
:1006F00011081F397404031D7E2B7F2B732B8E3141
:1007000008268331F50023000F0C890C0139F40011
:1007100011081F397404031D8E2B8F2B832B911608
:100720001116111A942B952B912B0F0C890C013952
:10073000F40011081F397404031D9F2BA02B952B67
:1007400011151119A42BA52BA12B751FA82BA92BB3
:10075000232B0F0C890C0139F40011081F39740484
:10076000031DB32BB42BA92B11141118B82BB92BC3
:10077000B52B0F0C890C0139F40011081F397404D2
:10078000031DC32BC42BB92B9A308F3165278331BE
:1007900023000F0C890C0139F40011081F3974046F
:1007A000031DD32BD42BC82B00308F316527833109
:1007B00023000F0C890C0139F40011081F3974044F
:1007C000031DE32BE42BD82B91149118E82BE92B74
:1007D000E52B0F0C890C0139F40011081F39740442
:1007E000031DF32BF42BE92B9B308F3165278331CD
:1007F00023000F0C890C0139F40011081F3974040F
:10080000031D032C042CF82B8E3108268331F500B0
:1008100023000F0C890C0139F40011081F397404EE
:10082000031D132C142C082C91161116111A192CB7
:100830001A2C162C0F0C890C0139F40011081F39E1
:100840007404031D242C252C1A2C11151119292C84
:100850002A2C262C750808002000C5003A088600BE
:100860008701403FBC00413FBD003C0884003D087B
:1008700085001200253A031D3E2C3F2CDA2C3A0845
:10088000860087010130810741310318810AE701A1
:10089000E8010310003003180130EB00FF30E900DD
:1008A000FF30EA00C401792CEB143A088600870176
:1008B0000130810741310318810A792CC401C40A2F
:1008C000792C3A0886008701403FBC00413FBD00BB
:1008D0003C0884003D0885000008BE00BF013F08B9
:1008E000003A0319742C5E2C3E08303A0319542C3C
:1008F0005E2C440803197D2C7E2C612C3B08F800EB
:100900003A088631CE26843179082000E80078083C
:10091000E700E81F8C2C8D2C932C6B14E709E80959
:10092000E70A0319E80A3A0886008701403FC60033
:10093000413FC70046088400470885001200643A1A
:100940000319A32CA42CAE2C46088400470885006C
:100950001200693A031DAD2CAE2CD02C3B0886004A
:10096000870101088400850102308107003FC00033
:10097000013FC1004608013EBC000030473DBD00BC
:100980003A08860087013C08C03F3D08C13F410846
:10099000AF004008AE0045088531A5258431F22C12
:1009A00020003A0886008701013081074131031891
:1009B000810AF22C3A0886008701403FBC00413F83
:1009C000BD003C0884003D0885000008BE00BF0152
:1009D0003E08F2003F08F3004508F4008F31B027CD
:1009E0008431D02C0800F6007608F039F70076083C
:1009F000F5000330F535FF3E031DFA2C7535F0394F
:100A0000F80023000F0C890C0139F50011081F397B
:100A10007504031D0C2D0D2D012D11141118112D10
:100A2000122D0E2D0F0C890C0139F50011081F39FC
:100A30007504031D1C2D1D2D122D4E308F31652781
:100A4000843123000F0C890C0139F50011081F397E
:100A50007504031D2C2D2D2D212D770874040838C5
:100A60008F316527843123000F0C890C0139F50083
:100A700011081F397504031D3E2D3F2D332D7708B6
:100A800074040C388F316527843123000F0C890CD6
:100A90000139F50011081F397504031D502D512D22
:100AA000452D00007708740408388F31652784319C
:100AB00023000F0C890C0139F50011081F3975044A
:100AC000031D632D642D582D7808740408388F3168
:100AD0006527843123000F0C890C0139F5001108BA
:100AE0001F397504031D752D762D6A2D7808740441
:100AF0000C388F316527843123000F0C890C0139A4
:100B0000F50011081F397504031D872D882D7C2DD4
:100B100000007808740408388F3165278431230079
:100B20000F0C890C0139F50011081F397504031DDC
:100B30009A2D9B2D8F2D111511199F2DA02D9C2DB8
:100B40001030890BA12D003208002000B100B40143
:100B5000B40AAF1BAC2DAE2D0130AF2D0030B70065
:100B60006808B6006708B50037080319B82DB92D15
:100B7000CD2DFF30B507FF30B63D3708031DC12D21
:100B8000C22DC72D2B30B2000030B300CB2D2D303D
:100B9000B2000030B3003208B7001F30B800003098
:100BA000B9002200BF01092EFF30B807FF30B93D60
:100BB0003808203E8600013087000A30F2000030FD
:100BC000F3002F08F5002E08F40087318E278531B9
:100BD00073082000A1007208A0008D3175258531B1
:100BE00020002008303E8100B401FF30B507FF30FF
:100BF000B63D0A30F2000030F3002F08F5002E0851
:100C0000F40087312E27853173082000AF00720869
:100C1000AE0020003908803AB00080303002031D59
:100C2000132E01303802031C162E172E352E2000ED
:100C30002E082F04031D1D2E1E2ED42D3408031D37
:100C4000222E232ED42D3608803AB0008030300278
:100C5000031D2C2E01303502031C2F2E302E352E75
:100C60002000EB18342E352ED42D20003708031920
:100C70003A2E3B2E462EFF30B807FF30B93D3808DC
:100C8000203E860001308700370881003808203E6A
:100C9000A7003608A9003508A80031088E319D2626
:100CA000853108004130F900EE30890B552EF90BE3
:100CB000552E003230308E31DC26863134308E3184
:100CC000DC268631A630890B632E003230308E311F
:100CD000DC2686310730F9007D30890B6D2EF90B4B
:100CE0006D2E000030308E31DC26863134308E316E
:100CF000DC268631A630890B7B2E003230308E31D7
:100D0000DC2686312130890B832E000030308E3175
:100D1000DC26863134308E31DC268631A630890BD4
:100D20008F2E003230308E31DC2686312130890B17
:100D3000972E000020308E31DC26863124308E3113
:100D4000DC268631A630890BA32E003220308E316E
:100D5000DC2686310730F9007D30890BAD2EF90B8A
:100D6000AD2E0000F40128308431F3248631F401E3
:100D700006308431F3248631F4010F308431F324BA
:100D80008631F40101308431F32486310330F900D7
:100D90009830890BC92EF90BC92E08002000A60037
:100DA000A401A501260886008701403FA000413F1D
:100DB000A100200884002108850012002A3A031DA2
:100DC000E22EE32E152F26088600870101308107C9
:100DD00041310318810A78088600870101088400E0
:100DE000850102308107003FA400013FA500292FA3
:100DF0002308A000A1012508F3002408F2000A300E
:100E0000F4000030F5008731E1278631200020080A
:100E10007207A4002108733DA500260886008701FB
:100E20000130810741310318810A260886008701B5
:100E3000403FA000413FA100200884002108850018
:100E40000008D03EA3000A302302031C282F292FBC
:100E5000F82E2508F9002408F80008002000A10158
:100E6000F31F332F342F3B2FF209F309F20A031932
:100E7000F30AA101A10AF51F3E2F3F2F482FF409C5
:100E8000F509F40A0319F50A0130F6007608A106FF
:100E9000A201A3017208730403194F2F502F7F2F53
:100EA000A001A00A5C2F0130F235F30D890B542FFD
:100EB0000130F6007608A007F31F5F2F602F532F35
:100EC0000130A235A30D890B612F73087502031D34
:100ED0006B2F72087402031C6E2F6F2F742F720811
:100EE000F4027308F53B22140130F336F20C890B3F
:100EF000752F0130A002031D7E2F7F2F602F210848
:100F00000319832F842F892FA209A309A20A031989
:100F1000A30A2308F3002208F2000800F801F51FD5
:100F2000922F932F9A2FF409F509F40A0319F50A61
:100F3000F801F80AF31F9D2F9E2FA32FF209F30942
:100F4000F20A0319F30A720873040319A82FA92FD0
:100F5000D22FF701F70AB52F0130F235F30D890BC7
:100F6000AD2F0130F6007608F707F31FB82FB92F21
:100F7000AC2F73087502031DBF2F72087402031C87
:100F8000C22FC32FC72F7208F4027308F53B01303C
:100F9000F336F20C890BC82F0130F702031DD12F55
:100FA000D22FB92F78080319D62FD72FDC2FF409A9
:100FB000F509F40A0319F50A7508F3007408F2003C
:100FC0000800F601F701721CE62FE72FEB2F7408DB
:100FD000F6077508F73D0130F435F50D890BEC2F58
:100FE0000130F336F20C890BF12F72087304031DE4
:100FF000FA2FFB2FE32F7708F3007608F2000800A2
:101A160001302100E500080073082000ED0072087F
:101A2600EC000800640080010131890B162D00349A
:101A3600F900F40179088431F3248D310800F900A6
:101A4600F401F40A79088431F3248D3108002F005B
:101A560096019701980199019A019B01080062304D
:101A660031008D008F019101023093009201080030
:101A7600803023008F0008309000910103308D00E4
:101A860090120800803023008F00083090009101EA
:101A960003308D00901620009315131608002400BD
:101AA6000E1D562D572D5E2D0E1071088D007008D7
:101AB6008C000E14622D71088D0070088C000800D1
:101AC600F400740821009E009317131313140000EA
:101AD600210013186F2D702D6B2D0D08F3000C08C7
:101AE600F20008002000A11B792D7A2D7B2D862D72
:101AF6002009A2002109A300A20A0319A30A2208A9
:101B0600A0002308A100080000308131DF218D31BB
:101B1600803903198F2D902D962D01302000A000BD
:101B26000030A100992D2000A001A10108008D31EF
:101B36002A258D318D313B258D318F311F278D31F2
:101B46008D3132258D318D31D8258D318E313E2620
:101B56008D3108002000A10021080319B32DB42DF2
:101B6600B72DC030A200B92D8030A20020080F3951
:101B76002204A20022088D311B258D3108002E007B
:101B860010107B08F1007A08F0008D3152258D3156
:101B960020006C086D040319D12DD22DD72D6D08A8
:101BA6008A006C080A008D31080022008E018F0120
:101BB60090019101920193018D0121009E019B01EB
:101BC6009C0194019501960197019A01990198014A
:101BD600843093009D010800F42D24088D312225C0
:101BE6008D3120002108A3002008A200A00A0319B5
:101BF600A10A22088400230885000008A4002408FE
:101C0600031D062E072EF02D08000F3023001005A9
:101C1600F200083072060319112E122E1B2E0F30F9
:101C26001005F2000B307206031D1A2E1B2E1C2EF9
:101C360091150F1C1F2E202E1C2E0C0808002000AC
:101C4600CC004908CE004808CD00312E4D30BA00F0
:101C56004A08BB004C0884312C248E3120004D08E4
:101C660084004E0885001200031D3A2E3B2E292EB5
:101C7600C801C901080024008F01900104309100B9
:101C860086308D00E8308C002E00101024000D08E0
:101C9600FB000C08FA002E001A140230F200003085
:101CA600F3008D310F258E31013024008E0008009F
:101CB6002000D9005130D8005908DA00DC01DD01D6
:101CC600E301E4015008C9004F08C8005830CA00B3
:101CD6005A308E3122268E3120005C085907D700F3
:101CE600570886008701810108002000A600A4018C
:101CF600A5018E2E2308A100A2012108F2002208C8
:101D0600F3002008F4008F31B0278E310130200017
:101D1600A4070030A53D24082607A1002108860057
:101D2600013087000108A3002308031D9B2E9C2E6B
:101D36007D2E08002000AD006B1CA22EA32EA92E1E
:101D46002D08A00027088E3178268E312000A91F85
:101D5600AD2EAE2EB02EA801A901AB01AC01C22E4C
:101D66002030F2000030F30020002D08F4008F31FF
:101D7600B0278E3101302000AB070030AC3D2C0877
:101D8600803AAA002908803A2A02031DCC2E280888
:101D96002B02031CCF2ED02EB32E20006B18D42E70
:101DA600D52EDB2E2D08A00027088E3178268E3101
:101DB6000800F50023000F0C890C0139F400110806
:101DC6001F397404031DE82EE92EDD2E1114111897
:101DD600ED2EEE2EEA2E0F0C890C0139F4001108B7
:101DE6001F397404031DF82EF92EEE2E4E308F3156
:101DF60065278E3123000F0C890C0139F400110878
:101E06001F397404031D082F092FFD2E75088F3105
:101E160065278E3123000F0C890C0139F400110857
:101E26001F397404031D182F192F0D2F11151119A1
:101E36001D2F1E2F1A2F080020009A0199019601C6
:101E46009701980107309500FF309100FF3092000E
:101E5600FF309300FF309400FF303E00D900E7309A
:101E6600CE00FF30C3000730E400FF30B800DA01CF
:101E7600E501C401B9011830CF00E601BA01C50178
:101E8600D001DB01FF30BB00FF30C600FF30D100C0
:101E9600FF30DC000730E700FF30BC00FF30C70032
:101EA600FF30D200FF30DD000730E80013303D0080
:101EB600C50014303E00A3001530A40014303D00C8
:101EC600C6000800F300730823008C00901F6C2FD7
:101ED6006D2F6E2FAF2F0F301005F20008307206EF
:101EE6000319762F772F8D2F0F301005F2000B3048
:101EF600720603197F2F802F8D2F10162E000F1CB0
:101F0600852F862F812F23000F198A2F8B2FAF2F16
:101F16000F08AF2F0F301005F200083072060319B4
:101F2600952F962F9F2F0F301005F2000B3072065B
:101F3600031D9E2F9F2FAF2F0F18A22FA32F9F2F6A
:101F46000F0C890C0139F20011081F397204031DA8
:101F5600AD2FAE2FA32F1108080074080319B42F54
:101F6600B52FBA2F7408031DB92FBA2FBF2F7208C9
:101F7600803103208F31FF2F7408093E86008701C8
:101F8600160001040319C82FC92FE72F7408093E4C
:101F960086008701403FF500413FF6007408023E87
:101FA60086008701403FF700413FF8007808803AF5
:101FB600F9007608803A7902031DE32F7508770247
:101FC6000318E62FE72FFF2F740886008701740891
:101FD600023E8400850100080107F50075088600A9
:101FE6008701720881007408023E8600870101306D
:101FF600810741310318810A080000340034003497
:10200600003400340034003400340034003400342A
:10201600003400340034003400340034003400341A
:10202600003400340034003400340034003400340A
:102036000034003400340034003425343034323473
:1020460064343A3425343034323464343A34253402
:102056003034323464340034253430343234643429
:1020660020344334203400344C3425346434003472
:1020760041340034433400344C3400345434003496
:020000040001F9
:08000000FF3FFF3FFF3FFF3F00
:0A000E00EC3FFF3F9F3FFF3FFF3F25
:00000001FF
