:04000000803118280B
:1000060008007E1480310B1F09280A2816282E00A6
:100016001A1C0E280F281628101C1228132816281A
:100026008D31D32580317E10090080311A282100B8
:100036008731FE278031D900FA01FB016530840043
:100046000030850007308D311E258031A0308400B8
:100056000030850031308D311E25803120308400FE
:100066000130850020308D311E2580317E10200024
:1000760080313D288E31192680318B170B170E30B3
:10008600F2000D30F3008D31122580318D314E2571
:1000960080312000161386312426803120006B081B
:1000A600031956285728512880308D312425803150
:1000B60020302000CF009030D00068082100D10009
:1000C600D20151082000D100210052082000D200A0
:1000D60067082100D300D40153082000D300210073
:1000E60054082000D40066082100D500D601550822
:1000F6002000D500210056082000D600C3308E31DE
:1001060085268031C3302000A0000030A1008E314A
:100116000026803103102000961F0314031894282C
:100126009728200096179928200096130130210061
:10013600D1005108D90703305906031DA328A42866
:1001460007298231EA2280312000EA0000308D3111
:100156008725803173082000E900C0308D312425C1
:1001660080312F302000CF009030D0006A08210067
:10017600D100D20151082000D100210052082000F0
:10018600D200CB308E31852680318D31AB25803142
:10019600200020082104031DD128D228C828CB30EE
:1001A600A0000030A1008E31002680310E302000E4
:1001B600A00001308D31BE25803137302000CF00C0
:1001C6009030D00069082100D100D20151082000EA
:1001D600D100210052082000D200CB308E31852676
:1001E60080318D31AB258031200020082104031D8C
:1001F600FD28FE28F428CB30A0000030A1008E3167
:10020600002680312100D9010F302000A0000030E7
:100216008D31BE2580313B302000A0009030A100FA
:100226008E31002680310B302000A00000308D3149
:10023600BE25803120006803031D22292329372982
:100246006708031D2729282937296608031D2C2935
:100256002D2937293D30A0009030A1008E3100268F
:1002660080318D31182580310C302000A0000030FF
:100276008D31BE2580311A3020006A02031C4429C4
:10028600452951294130A0009030A1008E31002629
:100296008031200096168D31182580310D302000D2
:1002A600A00000308D31BE25803103302000690268
:1002B600031C5E295F296B293F30A0009030A10006
:1002C6008E3100268031200016168D31182580319A
:1002D60020000C1F6F2970297F2901302100D100D1
:1002E6005108C20705304206031D7A297B297F295A
:1002F600200016132100C2013B30200066020318BD
:10030600852986298D2901302100D1005108200038
:10031600E607A229E6013B306702031893299429D0
:100326009B2901302100D10051082000E707A229AE
:10033600E70101302100D10051082000E807EB0158
:10034600512880311828F80023000F0C890C013938
:10035600F40011081F397404031DB229B329A72913
:1003660011141118B729B829B4290F0C890C0139B1
:10037600F40011081F397404031DC229C329B829C2
:100386004E308731B327813123000F0C890C013998
:10039600F40011081F397404031DD229D329C72973
:1003A6007808FA388731B327813123000F0C890C7E
:1003B6000139F40011081F397404031DE329E429E7
:1003C600D8297808FE388731B327813123000F0CEE
:1003D600890C0139F40011081F397404031DF4292E
:1003E600F529E9290000230091149118FB29FC291D
:1003F600F8290F0C890C0139F40011081F3974040F
:10040600031D062A072AFC294F308731B32781317D
:1004160023000F0C890C0139F40011081F397404EC
:10042600031D162A172A0B2A8E3132268131F60031
:1004360023000F0C890C0139F40011081F397404CC
:10044600031D262A272A1B2A91161116111A2C2A51
:100456002D2A292A91149118312A322A2E2A0F0C74
:10046600890C0139F40011081F397404031D3C2A54
:100476003D2A322A4E308731B327813123000F0CB3
:10048600890C0139F40011081F397404031D4C2A24
:100496004D2A412A7808FA388731B327813123005B
:1004A6000F0C890C0139F40011081F397404031D5F
:1004B6005D2A5E2A522A7808FE388731B3278131B1
:1004C60023000F0C890C0139F40011081F3974043C
:1004D600031D6E2A6F2A632A0000230091149118C7
:1004E600752A762A722A0F0C890C0139F400110834
:1004F6001F397404031D802A812A762A4F308731DA
:10050600B327813123000F0C890C0139F40011083F
:100516001F397404031D902A912A852A8E313226AA
:100526008131F70023000F0C890C0139F400110802
:100536001F397404031DA02AA12A952A91161116A3
:10054600111AA62AA72AA32A91149118AB2AAC2A13
:10055600A82A0F0C890C0139F40011081F397404FC
:10056600031DB62AB72AAC2A4E308731B32781310C
:1005760023000F0C890C0139F40011081F3974048B
:10058600031DC62AC72ABB2A7808FA388731B3273B
:10059600813123000F0C890C0139F40011081F3931
:1005A6007404031DD72AD82ACC2A11151119DC2A5E
:1005B600DD2AD92A7708F4000430F436890BE02ABC
:1005C6000F307405F5007608F0397504080023002D
:1005D6000F0C890C0139F40011081F397404031D2E
:1005E600F52AF62AEA2A11141118FA2AFB2AF72AFA
:1005F6000F0C890C0139F40011081F397404031D0E
:10060600052B062BFB2A9A308731B327823123002C
:100616000F0C890C0139F40011081F397404031DED
:10062600152B162B0A2B01308731B3278231230075
:100636000F0C890C0139F40011081F397404031DCD
:10064600252B262B1A2B911491182A2B2B2B272B73
:100656000F0C890C0139F40011081F397404031DAD
:10066600352B362B2B2B9B308731B327823123003A
:100676000F0C890C0139F40011081F397404031D8D
:10068600452B462B3A2B8E3132268231F50023003C
:100696000F0C890C0139F40011081F397404031D6D
:1006A600552B562B4A2B91161116111A5B2B5C2BC8
:1006B600582B0F0C890C0139F40011081F397404EA
:1006C600031D662B672B5C2B111511196B2B6C2BDD
:1006D600682B751F6F2B702BEA2A0F0C890C0139BA
:1006E600F40011081F397404031D7A2B7B2B702B21
:1006F600111411187F2B802B7C2B0F0C890C0139C0
:10070600F40011081F397404031D8A2B8B2B802BD0
:100716009A308731B327823123000F0C890C0139B7
:10072600F40011081F397404031D9A2B9B2B8F2B81
:1007360000308731B327823123000F0C890C013931
:10074600F40011081F397404031DAA2BAB2B9F2B31
:1007560091149118AF2BB02BAC2B0F0C890C0139CF
:10076600F40011081F397404031DBA2BBB2BB02BE0
:100776009B308731B327823123000F0C890C013956
:10078600F40011081F397404031DCA2BCB2BBF2B91
:100796008E3132268231F50023000F0C890C013987
:1007A600F40011081F397404031DDA2BDB2BCF2B41
:1007B60091161116111AE02BE12BDD2B0F0C890C6B
:1007C6000139F40011081F397404031DEB2BEC2BBF
:1007D600E12B11151119F02BF12BED2B75080800E3
:1007E6002000C5003A0886008701403FBC00413F13
:1007F600BD003C0884003D0885001200253A031D13
:10080600052C062CA82C3A088600870101308107A2
:1008160041310318810A2100BD01BE0103100030D9
:10082600031801302000E500FF302100BF00FF3033
:10083600C0002000C401442CE5143A088600870154
:100846000130810741310318810A442CC401C40ACE
:10085600442C3A0886008701403FBC00413FBD005A
:100866003C0884003D0885000008BE00BF013F0823
:10087600003A03193F2C292C3E08303A03191F2C45
:10088600292C44080319482C492C2C2C3B08F80029
:100896003A088631A026833179082100BE007808FF
:1008A600BD00BE1F572C582C602C2000651421005B
:1008B600BD09BE09BD0A0319BE0A20003A08860012
:1008C6008701403FC600413FC700460884004708ED
:1008D60085001200643A0319712C722C7C2C460890
:1008E6008400470885001200693A031D7B2C7C2C86
:1008F6009E2C3B0886008701010884008501023092
:100906008107003FC000013FC1004608013EBC0010
:100916000030473DBD003A08860087013C08C03FCD
:100926003D08C13F4108AF004008AE00450885318B
:1009360073258331C02C20003A08860087010130D8
:10094600810741310318810AC02C3A0886008701C5
:10095600403FBC00413FBD003C0884003D08850087
:100966000008BE00BF013E08F2003F08F30045083C
:10097600F4008F31B02783319E2C0800F6007608EC
:10098600F039F7007608F5000330F535FF3E031D14
:10099600C82C7535F039F80023000F0C890C013985
:1009A600F50011081F397504031DDA2CDB2CCF2C3A
:1009B60011141118DF2CE02CDC2C0F0C890C0139DA
:1009C600F50011081F397504031DEA2CEB2CE02CE9
:1009D6004E308731B327843123000F0C890C01393F
:1009E600F50011081F397504031DFA2CFB2CEF2C9A
:1009F6007708740408388731B327843123000F0C35
:100A0600890C0139F50011081F397504031D0C2DD9
:100A16000D2D012D770874040C388731B3278431E6
:100A260023000F0C890C0139F50011081F397504D4
:100A3600031D1E2D1F2D132D000077087404083882
:100A46008731B327843123000F0C890C0139F50057
:100A560011081F397504031D312D322D262D7808F6
:100A6600740408388731B327843123000F0C890CAE
:100A76000139F50011081F397504031D432D442D56
:100A8600382D780874040C388731B3278431230055
:100A96000F0C890C0139F50011081F397504031D67
:100AA600552D562D4A2D00007808740408388731D4
:100AB600B327843123000F0C890C0139F500110886
:100AC6001F397504031D682D692D5D2D111511192A
:100AD6006D2D6E2D6A2D1030890B6F2D003208009A
:100AE6002000B100B401B40AAF1B7A2D7C2D013071
:100AF6007D2D0030B70021003E082000B600210001
:100B06003D082000B500370803198A2D8B2D9F2D2F
:100B1600FF30B507FF30B63D3708031D932D942DE2
:100B2600992D2B30B2000030B3009D2D2D30B20030
:100B36000030B3003208B7001F30B8000030B900EB
:100B46002200BF01DB2DFF30B807FF30B93D380862
:100B5600203E8600013087000A30F2000030F300A4
:100B66002F08F5002E08F4008731602785317308B9
:100B76002000A1007208A0008D3199258531200042
:100B86002008303E8100B401FF30B507FF30B63D86
:100B96000A30F2000030F3002F08F5002E08F400AA
:100BA60087310027853173082000AF007208AE0038
:100BB60020003908803AB00080303002031DE52D50
:100BC60001303802031CE82DE92D072E20002E08DF
:100BD6002F04031DEF2DF02DA62D3408031DF42D33
:100BE600F52DA62D3608803AB00080303002031D60
:100BF600FE2D01303502031C012E022E072E200089
:100C0600E518062E072EA62D2000370803190C2EF0
:100C16000D2E182EFF30B807FF30B93D3808203E9C
:100C2600860001308700370881003808203EA7007B
:100C36003608A9003508A80031088E31E626853128
:100C460008004130F900EE30890B272EF90B272ECC
:100C5600003230308F312527863134308F312527C9
:100C66008631A630890B352E003230308F3125275C
:100C760086310730F9007D30890B3F2EF90B3F2E68
:100C8600000030308F312527863134308F312527CB
:100C96008631A630890B4D2E003230308F31252714
:100CA60086312130890B552E000030308F312527B3
:100CB600863134308F3125278631A630890B612E57
:100CC600003230308F31252786312130890B692E4D
:100CD600000020308F312527863124308F3125279B
:100CE6008631A630890B752E003220308F312527AC
:100CF60086310730F9007D30890B7F2EF90B7F2E68
:100D06000000F40128308431C1248631F401063014
:100D16008431C1248631F4010F308431C1248631F7
:100D2600F40101308431C12486310330F900983052
:100D3600890B9B2EF90B9B2E08002000A600A40110
:100D4600A501260886008701403FA000413FA1007B
:100D5600200884002108850012002A3A031DB42EBB
:100D6600B52EE72E2608860087010130810741311E
:100D76000318810A78088600870101088400850126
:100D860002308107003FA400013FA500FB2E230887
:100D9600A000A1012508F3002408F2000A30F4009F
:100DA6000030F5008E31A226863120002008720719
:100DB600A4002108733DA50026088600870101309E
:100DC600810741310318810A260886008701403FC2
:100DD600A000413FA10020088400210885000008EA
:100DE600D03EA3000A302302031CFA2EFB2ECA2E85
:100DF6002508F9002408F80008002000A101F31FC7
:100E0600052F062F0D2FF209F309F20A0319F30A2B
:100E1600A101A10AF51F102F112F1A2FF409F509A8
:100E2600F40A0319F50A0130F6007608A106A201B4
:100E3600A301720873040319212F222F512FA00139
:100E4600A00A2E2F0130F235F30D890B262F013023
:100E5600F6007608A007F31F312F322F252F013019
:100E6600A235A30D890B332F73087502031D3D2F81
:100E760072087402031C402F412F462F7208F40299
:100E86007308F53B22140130F336F20C890B472F19
:100E96000130A002031D502F512F322F21080319B4
:100EA600552F562F5B2FA209A309A20A0319A30ADD
:100EB6002308F3002208F2000800F801F51F642F4A
:100EC600652F6C2FF409F509F40A0319F50AF801E0
:100ED600F80AF31F6F2F702F752FF209F309F20A24
:100EE6000319F30A7208730403197A2F7B2FA42FB0
:100EF600F701F70A872F0130F235F30D890B7F2FA3
:100F06000130F6007608F707F31F8A2F8B2F7E2F06
:100F160073087502031D912F72087402031C942F27
:100F2600952F992F7208F4027308F53B0130F336BA
:100F3600F20C890B9A2F0130F702031DA32FA42F61
:100F46008B2F78080319A82FA92FAE2FF409F509BE
:100F5600F40A0319F50A7508F3007408F20008008C
:100F6600F300730823008C00901FBA2FBB2FBC2FF1
:100F7600FD2F0F301005F200083072060319C42F3A
:100F8600C52FDB2F0F301005F2000B307206031948
:100F9600CD2FCE2FDB2F10162E000F1CD32FD42FC4
:100FA600CF2F23000F19D82FD92FFD2F0F08FD2F74
:100FB6000F301005F200083072060319E32FE42FF4
:100FC600ED2F0F301005F2000B307206031DEC2FCB
:100FD600ED2FFD2F0F18F02FF12FED2F0F0C890C91
:100FE6000139F20011081F397204031DFB2FFC2F73
:0A0FF600F12F110808000234080072
:101A1C0001302000EB00080073082100D800720888
:101A2C00D70008002100C101C10A200016170800C8
:101A3C00640080010131890B1F2D0034F900F40181
:101A4C0079088431C1248D310800F900F401F40ABD
:101A5C0079088431C1248D3108002F00960197013B
:101A6C00980199019A019B010800623031008D00A8
:101A7C008F01910102309300920108008030230005
:101A8C008F0008309000910103308D0090120800F7
:101A9C00803023008F0008309000910103308D00BE
:101AAC0090162000931513160800803027008E0026
:101ABC007F308D00C0308C0024001F08F3390438AF
:101ACC009F0008000130250090008F019101FF302C
:101ADC008D008C012E009010803025008E000800A7
:101AEC0024000E1D7A2D7B2D822D0E1071088D0079
:101AFC0070088C000E14862D71088D0070088C00F7
:101B0C000800F400740821009E009317131313149B
:101B1C00000021001318932D942D8F2D0D08F30028
:101B2C000C08F20008002000A11B9D2D9E2D9F2D5E
:101B3C00AA2D2009A2002109A300A20A0319A30AB5
:101B4C002208A0002308A100080000308131A62142
:101B5C008D3180390319B32DB42DBA2D01302000ED
:101B6C00A0000030A100BD2D2000A001A1010800A3
:101B7C002000A10021080319C42DC52DC82DC0308B
:101B8C00A200CA2D8030A20020080F392204A20026
:101B9C0022088D3124258D3108002E0010107B0871
:101BAC00F1007A08F0008D3176258D31210057082F
:101BBC0058040319E22DE32DE82D58088A00570824
:101BCC000A008D31080022008E018F0190019101D5
:101BDC00920193018D0121009E019B019C019401B6
:101BEC009501960197019A0199019801843093000F
:101BFC009D010800052E24088D312B258E312000E7
:101C0C002108A3002008A200A00A0319A10A220897
:101C1C008400230885000008A4002408031D172E47
:101C2C00182E012E08008D3133258E318D3144252F
:101C3C008E318F3168278E318D313B258E318D3130
:101C4C005B258E318D31E9258E318D3168258E31B4
:101C5C008E3168268E3108000F3023001005F200FB
:101C6C000830720603193B2E3C2E452E0F30100502
:101C7C00F2000B307206031D442E452E462E911594
:101C8C000F1C492E4A2E462E0C0808002000CC00B2
:101C9C004908CE004808CD005B2E4D30BA004A08EA
:101CAC00BB004C088331F3238E3120004D08840097
:101CBC004E0885001200031D642E652E532EC8019C
:101CCC00C901080024008F01900104309100863076
:101CDC008D00E8308C002E00101024000D08FB0045
:101CEC000C08FA002E001A140330F2000030F30036
:101CFC008D3112258E31013024008E000800200019
:101D0C00D9005130D8005908DA00DC01DD01E301BB
:101D1C00E4015008C9004F08C8005830CA005A30B6
:101D2C008E314C268E3120005C085907D70057089D
:101D3C008600870181010800F601F701721CA72EAD
:101D4C00A82EAC2E7408F6077508F73D0130F43553
:101D5C00F50D890BAD2E0130F336F20C890BB22E3A
:101D6C0072087304031DBB2EBC2EA42E7708F3003F
:101D7C007608F20008002000A600A401A501D72EC9
:101D8C002308A100A2012108F2002208F300200878
:101D9C00F4008F31B0278E3101302000A4070030C1
:101DAC00A53D24082607A1002108860001308700E4
:101DBC000108A3002308031DE42EE52EC62E0800FF
:101DCC002000AD00651CEB2EEC2EF22E2D08A00091
:101DDC0027088E31C1268E312000A91FF62EF72E32
:101DEC00F92EA801A901AB01AC010B2F2030F20098
:101DFC000030F30020002D08F4008F31B0278E3115
:101E0C0001302000AB070030AC3D2C08803AAA0012
:101E1C002908803A2A02031D152F28082B02031CBF
:101E2C00182F192FFC2E200065181D2F1E2F242F64
:101E3C002D08A00027088E31C1268E310800F50030
:101E4C0023000F0C890C0139F40011081F3974049C
:101E5C00031D312F322F262F11141118362F372F27
:101E6C00332F0F0C890C0139F40011081F3974043D
:101E7C00031D412F422F372F4E308731B3278F311F
:101E8C0023000F0C890C0139F40011081F3974045C
:101E9C00031D512F522F462F75088731B3278F31D1
:101EAC0023000F0C890C0139F40011081F3974043C
:101EBC00031D612F622F562F11151119662F672FD5
:101ECC00632F080020009A0199019601970198014F
:101EDC00073095000F309100FF309200FF309300D7
:101EEC00FF309400FF303E00D900E730CE00FF30C9
:101EFC00C3000730E400FF30B800DA01E501C4018B
:101F0C00B9011830CF00E601BA01C501D001DB01DF
:101F1C00FF30BB00FF30C600FF30D100FF30DC00CB
:101F2C000730E700FF30BC00FF30C700FF30D200A5
:101F3C00FF30DD000730E80013303D00C5001430E1
:101F4C003E00A3001530A4000E30960014303D0066
:101F5C00C600080074080319B42FB52FBA2F7408E3
:101F6C00031DB92FBA2FBF2F72088731FF278F316E
:101F7C00FF2F7408093E860087011600010403191F
:101F8C00C82FC92FE72F7408093E86008701403FF0
:101F9C00F500413FF6007408023E86008701403F81
:101FAC00F700413FF8007808803AF9007608803A4B
:101FBC007902031DE32F750877020318E62FE72F2C
:101FCC00FF2F7408860087017408023E8400850187
:101FDC0000080107F500750886008701720881006A
:101FEC007408023E860087010130810741310318D5
:101FFC00810A08000034003400340034003400340A
:10200C000034003400340034003400340034003424
:10201C000034003400340034003400340034003414
:10202C000034003400340034003400340034003404
:10203C000034003425343034323464343A342534AA
:10204C003034323464343A342534303432346434F9
:10205C000034253430343234643420344334203466
:10206C0000344C342534643400344134003443346B
:0A207C0000344C34003454340034B6
:020000040001F9
:08000000FF3FFF3FFF3FFF3F00
:0A000E00EC3FFF379F3FFF3FFF3F2D
:00000001FF
