:10000000803102288731E52F080020009A019901EC
:1000100096019701980107309500FF309100FF305D
:100020009200FF309300FF309400FF303E00D90073
:10003000E630CE00FF30C3000730E400FF30B800E8
:10004000DA01E501C401B9011830CF00E601BA01B7
:10005000C501D001DB01FF30BB00FF30C600FF301F
:10006000D100FF30DC000730E700FF30BC00FF307C
:10007000C700FF30D200FF30DD000730E80010304D
:100080003D0092001330C50014303E00A30015302F
:10009000A40014303D00C6000800F601F31F5128EB
:1000A00052285928F209F309F20A0319F30AF60152
:1000B000F60AF11F5C285D286228F009F109F00AB0
:1000C0000319F10A70087104031967286828912838
:1000D000F501F50A74280130F035F10D890B6C2813
:1000E0000130F4007408F507F11F772878286B2891
:1000F00071087302031D7E2870087202031C812898
:10010000822886287008F2027108F33B0130F1362C
:10011000F00C890B87280130F502031D90289128E7
:10012000782876080319952896289B28F209F30960
:10013000F20A0319F30A7308F1007208F0000800CC
:10014000F601F11FA428A528AC28F009F109F00A4E
:100150000319F10AF601F60AF31FAF28B028B928EF
:10016000F209F309F20A0319F30A0130F4007408E2
:10017000F606F701F801700871040319C028C128B8
:10018000F028F501F50ACD280130F035F10D890B85
:10019000C5280130F4007408F507F11FD028D128D4
:1001A000C4280130F735F80D890BD2287108730285
:1001B000031DDC2870087202031CDF28E028E528F4
:1001C0007008F2027108F33B77140130F136F00C3D
:1001D000890BE6280130F502031DEF28F028D1280D
:1001E00076080319F428F528FA28F709F809F70A18
:1001F0000319F80A7808F1007708F00008002000D9
:10020000A300A101A201230886008701403FF80056
:10021000413FF900780884007908850012002A3AE5
:10022000031D13291429462923088600870101305C
:10023000810741310318810A760886008701010889
:100240008400850102308107003FA100013FA20028
:100250005A292008F800F9012208F1002108F000CD
:100260000A30F2000030F3008E319F26803178088A
:1002700070072000A1007908713DA20023088600C4
:1002800087010130810741310318810A2308860064
:100290008701403FF800413FF90078088400790861
:1002A00085000008D03EA0000A302002031C592916
:1002B0005A2929292208F7002108F60008004130B0
:1002C000F700EE30890B6229F70B622900323030DB
:1002D0008F312227813134308F3122278131A6306E
:1002E000890B7029003230308F312227813107305D
:1002F000F7007D30890B7A29F70B7A29000030301E
:100300008F312227813134308F3122278131A6303D
:10031000890B8829003230308F31222781312130FA
:10032000890B9029000030308F3122278131343001
:100330008F3122278131A630890B9C290032303041
:100340008F31222781312130890BA42900002030F0
:100350008F312227813124308F3122278131A630FD
:10036000890BB029003220308F31222781310730AC
:10037000F7007D30890BBA29F70BBA290000F2018A
:100380002830823187228131F20106308231872282
:100390008131F2010F30823187228131F201013047
:1003A0008231872281310330F7009830890BD629BA
:1003B000F70BD62908002000AD00AE01AE0AA91B3C
:1003C000E229E4290130E5290030B1006208B000DB
:1003D0006108AF0031080319EE29EF29032AFF3025
:1003E000AF07FF30B03D3108031DF729F829FD297B
:1003F0002B30AB000030AC00012A2D30AB000030B8
:10040000AC002B08B1001F30B2000030B300220056
:10041000BF013E2AFF30B207FF30B33D3208203E15
:100420008600013087000A30F0000030F100290812
:10043000F3002808F20080314D2081317108F80066
:100440007008F7008D31BE2581317708303E81007C
:100450002000AE01FF30AF07FF30B03D0A30F000A2
:100460000030F1002908F3002808F2008031A020B4
:10047000813171082000A9007008A800200033080D
:10048000803AAA0080302A02031D482A0130320235
:10049000031C4B2A4C2A6A2A200028082904031D21
:1004A000522A532A0A2A2E08031D572A582A0A2A92
:1004B0003008803AAA0080302A02031D612A0130E8
:1004C0002F02031C642A652A6A2A2000E718692A79
:1004D0006A2A0A2A2000310803196F2A702A7B2A07
:1004E000FF30B207FF30B33D3208203E86000130B6
:1004F0008700310881003208203EFB003008FD00F3
:100500002F08FC002D088E31E32681310800F4000D
:100510007408F039F5007408F3000330F335FF3E3A
:10052000031D8E2A7335F039F60023000F0C890C59
:100530000139F30011081F397304031DA02AA12AF1
:10054000952A11141118A52AA62AA22A0F0C890C83
:100550000139F30011081F397304031DB02AB12AB1
:10056000A62A4E308F316527823123000F0C890C6B
:100570000139F30011081F397304031DC02AC12A71
:10058000B52A7508720408388F3165278231230037
:100590000F0C890C0139F30011081F397304031D76
:1005A000D22AD32AC72A750872040C388F316527DE
:1005B000823123000F0C890C0139F30011081F3917
:1005C0007304031DE42AE52AD92A00007508720481
:1005D00008388F316527823123000F0C890C0139CF
:1005E000F30011081F397304031DF72AF82AEC2AB7
:1005F0007608720408388F316527823123000F0C8A
:10060000890C0139F30011081F397304031D092BEC
:100610000A2BFE2A760872040C388F316527823146
:1006200023000F0C890C0139F30011081F397304E2
:10063000031D1B2B1C2B102B00007608720408389E
:100640008F316527823123000F0C890C0139F300AB
:1006500011081F397304031D2E2B2F2B232B11156B
:100660001119332B342B302B1030890B352B0032E2
:1006700008002000BF00340886008701403FB60014
:10068000413FB70036088400370885001200253A3C
:10069000031D4B2B4C2BE72B3408860087010130C0
:1006A000810741310318810AE101E20103100030A2
:1006B00003180130E700FF30E300FF30E400BE0123
:1006C000862BE71434088600870101308107413109
:1006D0000318810A862BBE01BE0A862B34088600C9
:1006E0008701403FB600413FB70036088400370815
:1006F00085000008B800B9013908003A0319812BB8
:100700006B2B3808303A0319612B6B2B3E08031909
:100710008A2B8B2B6E2B3508F60034088031FF2096
:10072000833177082000E2007608E100E21F992B70
:100730009A2BA02B6714E109E209E10A0319E20AE6
:10074000340886008701403FC000413FC100400897
:100750008400410885001200643A0319B02BB12BC4
:10076000BB2B40088400410885001200693A031D34
:10077000BA2BBB2BDD2B35088600870101088400CE
:10078000850102308107003FBA00013FBB004008ED
:10079000013EB6000030413DB700340886008701B5
:1007A0003608C03F3708C13F3B08A9003A08A800F7
:1007B0003F088131DB218331FF2B20003408860084
:1007C00087010130810741310318810AFF2B34086A
:1007D00086008701403FB600413FB70036088400DD
:1007E000370885000008B800B9013808F00039085A
:1007F000F1003F08F2008F31B0278331DD2B080074
:1008000023000F0C890C0139F20011081F39720402
:10081000031D0B2C0C2C002C11141118102C112C56
:100820000D2C0F0C890C0139F20011081F397204CC
:10083000031D1B2C1C2C112C9A308F316527843101
:1008400023000F0C890C0139F20011081F397204C2
:10085000031D2B2C2C2C202C01308F31652784314B
:1008600023000F0C890C0139F20011081F397204A2
:10087000031D3B2C3C2C302C91149118402C412C06
:100880003D2C0F0C890C0139F20011081F3972043C
:10089000031D4B2C4C2C412C9B308F316527843110
:1008A00023000F0C890C0139F20011081F39720462
:1008B000031D5B2C5C2C502C8E314C268431F300B4
:1008C00023000F0C890C0139F20011081F39720442
:1008D000031D6B2C6C2C602C91161116111A712CA7
:1008E000722C6E2C0F0C890C0139F20011081F3983
:1008F0007204031D7C2C7D2C722C11151119812C76
:10090000822C7E2C731F852C862C002C0F0C890CBE
:100910000139F20011081F397204031D902C912C2B
:10092000862C11141118952C962C922C0F0C890CD6
:100930000139F20011081F397204031DA02CA12CEB
:10094000962C9A308F316527843123000F0C890C47
:100950000139F20011081F397204031DB02CB12CAB
:10096000A52C00308F316527843123000F0C890CB2
:100970000139F20011081F397204031DC02CC12C6B
:10098000B52C91149118C52CC62CC22C0F0C890CB7
:100990000139F20011081F397204031DD02CD12C2B
:1009A000C62C9B308F316527843123000F0C890CB6
:1009B0000139F20011081F397204031DE02CE12CEB
:1009C000D52C8E314C268431F30023000F0C890C7A
:1009D0000139F20011081F397204031DF02CF12CAB
:1009E000E52C91161116111AF62CF72CF32C0F0C7E
:1009F000890C0139F20011081F397204031D012D01
:100A0000022DF72C11151119062D072D032D730832
:100A10000800F60023000F0C890C0139F2001108C0
:100A20001F397204031D152D162D0A2D11141118CE
:100A30001A2D1B2D172D0F0C890C0139F2001108EE
:100A40001F397204031D252D262D1B2D4E308F318D
:100A50006527853123000F0C890C0139F20011083C
:100A60001F397204031D352D362D2A2D7608FA38CC
:100A70008F316527853123000F0C890C0139F20075
:100A800011081F397204031D462D472D3B2D760892
:100A9000FE388F316527853123000F0C890C013911
:100AA000F20011081F397204031D572D582D4C2DCB
:100AB00000002300911491185E2D5F2D5B2D0F0C0B
:100AC000890C0139F20011081F397204031D692DC8
:100AD0006A2D5F2D4F308F316527853123000F0C34
:100AE000890C0139F20011081F397204031D792D98
:100AF0007A2D6E2D8E314C268531F40023000F0C9B
:100B0000890C0139F20011081F397204031D892D67
:100B10008A2D7E2D91161116111A8F2D902D8C2D48
:100B200091149118942D952D912D0F0C890C01394C
:100B3000F20011081F397204031D9F2DA02D952D61
:100B40004E308F316527853123000F0C890C013918
:100B5000F20011081F397204031DAF2DB02DA42D12
:100B60007608FA388F316527853123000F0C890C00
:100B70000139F20011081F397204031DC02DC12D67
:100B8000B52D7608FE388F316527853123000F0C8F
:100B9000890C0139F20011081F397204031DD12D8F
:100BA000D22DC62D0000230091149118D82DD92DD7
:100BB000D52D0F0C890C0139F20011081F39720470
:100BC000031DE32DE42DD92D4F308F31652785315D
:100BD00023000F0C890C0139F20011081F3972042F
:100BE000031DF32DF42DE82D8E314C268531F500B3
:100BF00023000F0C890C0139F20011081F3972040F
:100C0000031D032E042EF82D91161116111A092E0C
:100C10000A2E062E911491180E2E0F2E0B2E0F0C4D
:100C2000890C0139F20011081F397204031D192EB5
:100C30001A2E0F2E4E308F316527853123000F0C71
:100C4000890C0139F20011081F397204031D292E85
:100C50002A2E1E2E7608FA388F316527853123001B
:100C60000F0C890C0139F20011081F397204031DA1
:100C70003A2E3B2E2F2E111511193F2E402E3C2EB1
:100C80007508F2000430F236890B432E0F307205DE
:100C9000F3007408F039730408002100AE01AF01BD
:100CA000C001C101C401C501C601C7010330BE00B6
:100CB0000030BF000230BC000030BD000130B00089
:100CC0000030B100FF30B200FF30B300FF30B4009D
:100CD000FF30B500FF30B600FF30B7001430B80069
:100CE0000030B9000230BA000030BB008D31E12580
:100CF00086318D31A025863181315F21863180306A
:100D00008D317625863120302000C9009030CA0010
:100D1000210041082000CC00210040082000CB0029
:100D2000210045082000CE00210044082000CD000D
:100D3000210047082000D000210046082000CF00F5
:100D4000A0308E3182268631A030F8000030F900C4
:100D50008E313426863101302100BC070030BD3D84
:100D60003F083D06031DB62E3E083C06031DB92E66
:100D7000BA2E172F8431002486312100C2000030A2
:100D80008D31CF25863171082100C300C0308D31EF
:100D9000762586312F302000C9009030CA0021000E
:100DA00042082000DF00E0015F08CB006008CC00B3
:100DB000A8308E31822686318D31AD258631770877
:100DC0007804031DE42EE52EDC2EA830F800003058
:100DD000F9008E31342686310E30F80001308D3125
:100DE000F425863137302000C9009030CA00210038
:100DF00043082000DF00E0015F08CB006008CC0062
:100E0000A8308E31822686318D31AD258631770826
:100E10007804031D0C2F0D2F042FA830F80000308C
:100E2000F9008E31342686312100BC01BD01300825
:100E3000310403191C2F1D2FA02F0F30F800003094
:100E40008D31F42586313B30F8009030F9008E3139
:100E5000342686310B30F80000308D31F425863190
:100E6000210033084106031D372F32084006031DB9
:100E70003A2F3B2F562F35084506031D412F3408C6
:100E80004406031D442F452F562F37084706031DE0
:100E90004B2F36084606031D4E2F4F2F562F3D3041
:100EA000F8009030F9008E31342686310C30F8008D
:100EB00000308D31F425863121003908803A200038
:100EC000DF0080305F02031D682F210042083802D6
:100ED00003186B2F6C2F742F4130F8009030F900FD
:100EE0008E31342686317B2F3530F8009030F90072
:100EF0008E31342686310D30F80000308D31F425E6
:100F0000863121003B08803A2000DF0080305F02FC
:100F1000031D8D2F210043083A020318902F912FB3
:100F2000992F3F30F8009030F9008E313426863109
:100F3000A02F3530F8009030F9008E3134268631FC
:100F400002302000E0004530DF00A930890BA62FD9
:100F5000DF0BA62FE00BA62F003221004708803AB6
:100F60002000DF0080305F02031DB92F3B302100DD
:100F700046020318BC2FBD2FC32F01302100C60726
:100F80000030C73D7F2E2100C601C7014508803AC9
:100F90002000DF0080305F02031DD12F3B30210095
:100FA00044020318D42FD52FDB2F01302100C407B2
:100FB0000030C53D7F2E2100C401C5010130C007AE
:100FC0000030C13D7F2E8031022861308400003026
:100FD000850007308D3170258731C830840000309E
:100FE00085001D308D31702587312030840001301F
:100FF000850020308D3170258731200086314D2EBF
:101AE000640080010131890B712D0034F700F2018F
:101AF0007708823187228D310800F700F201F20A5F
:101B00007708823187228D3108002F0096019701D6
:101B1000980199019A019B010800623031008D0003
:101B20008F01910102309300920108008030230060
:101B30008F0008309000910103308D009012080052
:101B4000803023008F0008309000910103308D0019
:101B500090162000931513160800003085310925D2
:101B60008D3180390319B52DB62DBB2D0130F7000D
:101B70000030F800BD2DF701F8010800F81BC12D59
:101B8000C22DC32DCE2D7709F9007809FA00F90A84
:101B90000319FA0A7908F7007A08F8000800F20039
:101BA000720821009E0093171313131400002100E4
:101BB0001318DB2DDC2DD72D0D08F1000C08F000DB
:101BC00008008D3185258D318D3196258D318031FF
:101BD00005208D318D318D258D318E311D268D3134
:101BE0008E3108268D310800F90079080319F92D86
:101BF000FA2DFD2DC030FA00FF2D8030FA00780854
:101C00000F397A04FA007A088D3176258D31080073
:101C100024008F019001910180308D008C012E00F5
:101C2000101024000D082000E60024000C082000FD
:101C3000E500013024008E00080022008E018F0193
:101C400090019101920193018D0121009E019B0160
:101C50009C0194019501960197019A0199019801BF
:101C6000843093009D010800392E7C088D317D253C
:101C70008E317908FB007808FA00F80A0319F90A8E
:101C80007A0884007B0885000008FC007C08031D9E
:101C90004A2E4B2E352E08000F3023001005F00081
:101CA000083070060319552E562E5F2E0F30100582
:101CB000F0000B307006031D5E2E5F2E602E911516
:101CC0000F1C632E642E602E0C0808002000C60036
:101CD0004308C8004208C700752E4730B4004408C6
:101CE000B5004608833139238E312000470884002F
:101CF000480885001200031D7E2E7F2E6D2EC20126
:101D0000C30108002000D3004B30D2005308D40098
:101D1000D601D701DD01DE014A08C3004908C2002F
:101D20005230C40054308E3166268E312000560861
:101D30005307D10051088600870181010800F40192
:101D4000F501701CA42EA52EA92E7208F4077308A5
:101D5000F53D0130F235F30D890BAA2E0130F13635
:101D6000F00C890BAF2E70087104031DB82EB92E2C
:101D7000A12E7508F1007408F00008002000A300EF
:101D8000A101A201D42E2008F900FA017908F0007F
:101D90007A08F1007808F2008F31B0278E310130D7
:101DA0002000A1070030A23D21082307F90079088F
:101DB0008600013087000108A0002008031DE12EE5
:101DC000E22EC32E08002000A700671CE82EE92E93
:101DD000EF2E2708F8007B088E31BE268E31FD1FBE
:101DE000F22EF32EF52EFC01FD012000A501A60127
:101DF000082F2030F0000030F10020002708F2000A
:101E00008F31B0278E3101302000A5070030A63D6C
:101E10002608803AA4007D08803A2402031D122F70
:101E20007C082502031C152F162FF92E2000671899
:101E30001A2F1B2F212F2708F8007B088E31BE2672
:101E40008E310800F30023000F0C890C0139F200D9
:101E500011081F397204031D2E2F2F2F232F111449
:101E60001118332F342F302F0F0C890C0139F20049
:101E700011081F397204031D3E2F3F2F342F4E309F
:101E80008F3165278F3123000F0C890C0139F20047
:101E900011081F397204031D4E2F4F2F432F730853
:101EA0008F3165278F3123000F0C890C0139F20027
:101EB00011081F397204031D5E2F5F2F532F111558
:101EC0001119632F642F602F0800F100710823009F
:101ED0008C00901F6C2F6D2F6E2FAF2F0F301005C1
:101EE000F000083070060319762F772F8D2F0F30F2
:101EF0001005F0000B30700603197F2F802F8D2FF7
:101F000010162E000F1C852F862F812F23000F19EE
:101F10008A2F8B2FAF2F0F08AF2F0F301005F00037
:101F2000083070060319952F962F9F2F0F3010053C
:101F3000F0000B307006031D9E2F9F2FAF2F0F1840
:101F4000A22FA32F9F2F0F0C890C0139F00011082D
:101F50001F397004031DAD2FAE2FA32F11080800E9
:101F600072080319B42FB52FBA2F7208031DB92FA9
:101F7000BA2FBF2F7008803104208F31FF2F7208D5
:101F8000093E86008701160001040319C82FC92FD6
:101F9000E72F7208093E86008701403FF300413F6A
:101FA000F4007208023E86008701403FF500413F81
:101FB000F6007608803AF7007408803A7702031D2D
:101FC000E32F730875020318E62FE72FFF2F72081F
:101FD000860087017208023E84008501000801071F
:101FE000F300730886008701700881007208023EC2
:101FF000860087010130810741310318810A0800FA
:102000000034003400340034003400340034003430
:102010000034003400340034003400340034003420
:102020000034003400340034003400340034003410
:102030000034003400340034003400340034003400
:1020400025343034323464343A3425343034323444
:1020500064343A3425343034323464340034253432
:1020600030343234643420344334203400344C343B
:1020700025346434003441340034433400344C3467
:062080000034543400346A
:020000040001F9
:08000000FF3FFF3FFF3FFF3F00
:0A000E00EC3FFF3F9F3FFF3FFF3F25
:00000001FF
